:020000040800F2
:10000000F82E002009610008415A0008DD60000850
:10001000DD600008DD600008DD6000080000000011
:10002000000000000000000000000000155B000858
:10003000DD60000800000000C95A0008FD8D0008BE
:10004000995B0008995B0008995B0008995B0008C0
:10005000995B0008995B0008995B0008995B0008B0
:10006000995B0008995B0008995B0008995B0008A0
:10007000995B0008995B0008995B0008995B000890
:10008000995B0008995B0008995B0008995B000880
:10009000995B0008995B0008995B0008995B000870
:1000A000995B0008995B0008995B0008995B000860
:1000B000995B0008995B0008995B0008995B000850
:1000C000995B0008995B0008995B0008995B000840
:1000D000995B0008995B0008995B0008995B000830
:1000E000995B0008995B0008995B0008995B000820
:0400F000995B000810
:0400F400FFFFFFFF0C
:1000F80081F0004102E000BF83F0004330B54FEAD1
:1001080041044FEA430594EA050F08BF90EA020F3D
:100118001FBF54EA000C55EA020C7FEA645C7FEAD0
:10012800655C00F0E2804FEA5454D4EB5555B8BFF3
:100138006D420CDD2C4480EA020281EA030382EA64
:10014800000083EA010180EA020281EA0303362DF6
:1001580088BF30BD11F0004F4FEA01314FF4801CC9
:100168004CEA113102D0404261EB410113F0004FDB
:100178004FEA03334CEA133302D0524263EB430392
:1001880094EA050F00F0A780A4F10104D5F1200E30
:100198000DDB02FA0EFC22FA05F2801841F100018B
:1001A80003FA0EF2801843FA05F359410EE0A5F15F
:1001B80020050EF1200E012A03FA0EFC28BF4CF090
:1001C800020C43FA05F3C01851EBE37101F0004546
:1001D80007D54FF0000EDCF1000C7EEB00006EEB53
:1001E8000101B1F5801F1BD3B1F5001F0CD34908DD
:1001F8005FEA30004FEA3C0C04F101044FEA445234
:1002080012F5800F80F09A80BCF1004F08BF5FEABA
:10021800500C50F1000041EB045141EA050130BD9A
:100228005FEA4C0C404141EB0101013C28BFB1F5AC
:10023800801FE9D291F0000F04BF01460020B1FAF7
:1002480081F308BF2033A3F10B03B3F120020CDACA
:100258000C3208DD02F1140CC2F10C0201FA0CF0A8
:1002680021FA02F10CE002F11402D8BFC2F1200C0D
:1002780001FA02F120FA0CFCDCBF41EA0C019040C3
:10028800E41AA2BF01EB0451294330BD6FEA04040C
:100298001F3C1CDA0C340EDC04F11404C4F12002F7
:1002A80020FA04F001FA02F340EA030021FA04F309
:1002B80045EA030130BDC4F10C04C4F1200220FA60
:1002C80002F001FA04F340EA0300294630BD21FA9E
:1002D80004F0294630BD94F0000F83F4801306BF64
:1002E80081F480110134013D4EE77FEA645C18BF58
:1002F8007FEA655C29D094EA050F08BF90EA020FEF
:1003080005D054EA000C04BF1946104630BD91EAE6
:10031800030F1EBF0021002030BD5FEA545C05D1E9
:100328004000494128BF41F0004130BD14F5800428
:100338003CBF01F5801130BD01F0004545F0FE419C
:1003480041F470014FF0000030BD7FEA645C1ABFD1
:10035800194610467FEA655C1CBF0B46024650EA08
:10036800013406BF52EA033591EA030F41F4002134
:1003780030BD00BF90F0000F04BF0021704730B5BA
:100388004FF4806404F132044FF000054FF000018F
:1003980050E700BF90F0000F04BF0021704730B550
:1003A8004FF4806404F1320410F0004548BF404225
:1003B8004FF000013EE700BF42004FEAE2014FEA7A
:1003C80031014FEA02701FBF12F07F4393F07F4F55
:1003D80081F06051704732F07F4208BF704793F058
:1003E8007F4F04BF41F40021704730B54FF460746B
:1003F80001F0004521F000411CE700BF50EA01026E
:1004080008BF704730B54FF000050AE050EA010216
:1004180008BF704730B511F0004502D5404261EB86
:1004280041014FF4806404F132045FEA915C3FF4C7
:10043800D8AE4FF003025FEADC0C18BF03325FEA64
:10044800DC0C18BF033202EBDC02C2F1200300FA15
:1004580003FC20FA02F001FA03FE40EA0E0021FA3A
:1004680002F11444BDE600BF70B54FF0FF0C4CF428
:10047800E06C1CEA11541DBF1CEA135594EA0C0FDA
:1004880095EA0C0F00F0DEF82C4481EA030621EA15
:100498004C5123EA4C5350EA013518BF52EA033550
:1004A80041F4801143F4801338D0A0FB02CE4FF002
:1004B8000005E1FB02E506F00042E0FB03E54FF032
:1004C8000006E1FB03569CF0000F18BF4EF0010E2A
:1004D800A4F1FF04B6F5007F64F5407404D25FEA26
:1004E8004E0E6D4146EB060642EAC62141EA5551D9
:1004F8004FEAC52040EA5E504FEACE2EB4F1FD0C1B
:1005080088BFBCF5E06F1ED8BEF1004F08BF5FEA98
:10051800500E50F1000041EB045170BD06F000464A
:1005280046EA010140EA020081EA0301B4EB5C04F7
:10053800C2BFD4EB0C0541EA045170BD41F48011EF
:100548004FF0000E013C00F3AB8014F1360FDEBF14
:10055800002001F0004170BDC4F10004203C35DAF0
:100568000C341BDC04F11404C4F1200500FA05F373
:1005780020FA04F001FA05F240EA020001F0004214
:1005880021F0004110EBD37021FA04F642EB06018A
:100598005EEA430E08BF20EAD37070BDC4F10C04B4
:1005A800C4F1200500FA04F320FA05F001FA04F278
:1005B80040EA020001F0004110EBD37041F1000164
:1005C8005EEA430E08BF20EAD37070BDC4F120056F
:1005D80000FA05F24EEA020E20FA04F301FA05F2D7
:1005E80043EA020321FA04F001F0004121FA04F27F
:1005F80020EA020000EBD3705EEA430E08BF20EA4F
:10060800D37070BD94F0000F0FD101F00046400088
:1006180041EB010111F4801F08BF013CF7D041EA0A
:10062800060195F0000F18BF704703F0004652000E
:1006380043EB030313F4801F08BF013DF7D043EADF
:100648000603704794EA0C0F0CEA135518BF95EA95
:100658000C0F0CD050EA410618BF52EA4306D1D11C
:1006680081EA030101F000414FF0000070BD50EA3B
:10067800410606BF1046194652EA430619D094EAC5
:100688000C0F02D150EA013613D195EA0C0F05D1AF
:1006980052EA03361CBF104619460AD181EA030103
:1006A80001F0004141F0FE4141F470014FF00000BB
:1006B80070BD41F0FE4141F4780170BD70B54FF056
:1006C800FF0C4CF4E06C1CEA11541DBF1CEA1355D6
:1006D80094EA0C0F95EA0C0F00F0A7F8A4EB0504B8
:1006E80081EA030E52EA03354FEA013100F08880AF
:1006F8004FEA03334FF0805545EA131343EA126378
:100708004FEA022245EA111545EA10654FEA00262C
:100718000EF000419D4208BF964244F1FD0404F5E5
:10072800407402D25B084FEA3202B61A65EB030541
:100738005B084FEA32024FF480104FF4002CB6EBFE
:10074800020E75EB030E22BFB61A754640EA0C007E
:100758005B084FEA3202B6EB020E75EB030E22BFBE
:10076800B61A754640EA5C005B084FEA3202B6EBFF
:10077800020E75EB030E22BFB61A754640EA9C00BE
:100788005B084FEA3202B6EB020E75EB030E22BF8E
:10079800B61A754640EADC0055EA060E18D04FEA4C
:1007A800051545EA16754FEA06164FEAC30343EAEC
:1007B80052734FEAC2025FEA1C1CC0D111F4801FB9
:1007C8000BD141EA00014FF000004FF0004CB6E7B2
:1007D80011F4801F04BF01430020B4F1FD0C88BF51
:1007E800BCF5E06F3FF6AFAEB5EB030C04BFB6EB5C
:1007F800020C5FEA500C50F1000041EB045170BD4F
:100808000EF0004E4EEA113114EB5C04C2BFD4EB7B
:100818000C0541EA045170BD41F480114FF0000EFF
:10082800013C90E645EA060E8DE60CEA135594EA7B
:100838000C0F08BF95EA0C0F3FF43BAF94EA0C0F7E
:100848000AD150EA01347FF434AF95EA0C0F7FF4F3
:1008580025AF104619462CE795EA0C0F06D152EA47
:1008680003353FF4FDAE1046194622E750EA41062B
:1008780018BF52EA43067FF4C5AE50EA41047FF43C
:100888000DAF52EA43057FF4EBAE12E74FEA41029F
:10089800B2F1E04324BFB3F5001CDCF1FE5C0DD9D6
:1008A80001F0004C4FEAC0024CEA5070B2F1004F20
:1008B80040EB830008BF20F00100704711F0804F23
:1008C80021D113F13872BCBF01F00040704741F4E8
:1008D80080114FEA5252C2F11802C2F1200C10FAEC
:1008E8000CF320FA02F018BF40F001004FEAC123D0
:1008F8004FEAD32303FA0CFC40EA0C0023FA02F374
:100908004FEA4303CCE77FEA625307D150EA013349
:100918001EBF4FF0FE4040F44000704701F0004019
:1009280040F0FE4040F40000704700BF80F00040F7
:1009380002E000BF81F0004142001FBF5FEA4103AF
:1009480092EA030F7FEA226C7FEA236C6AD04FEAAF
:100958001262D2EB1363C1BFD218414048404140F4
:10096800B8BF5B42192B88BF704710F0004F40F4A6
:10097800000020F07F4018BF404211F0004F41F4C2
:10098800000121F07F4118BF494292EA030F3FD08E
:10099800A2F1010241FA03FC10EB0C00C3F12003A1
:1009A80001FA03F100F0004302D5494260EB400030
:1009B800B0F5000F13D3B0F1807F06D340084FEA9B
:1009C800310102F10102FE2A51D2B1F1004F40EB90
:1009D800C25008BF20F0010040EA030070474900F8
:1009E80040EB0000013A28BFB0F5000FEDD2B0FA95
:1009F80080FCACF1080CB2EB0C0200FA0CF0AABFB8
:100A080000EBC25052421843BCBFD0401843704755
:100A180092F0000F81F4000106BF80F4000001325B
:100A2800013BB5E74FEA41037FEA226C18BF7FEA32
:100A3800236C21D092EA030F04D092F0000F08BF74
:100A48000846704790EA010F1CBF0020704712F05B
:100A58007F4F04D1400028BF40F00040704712F19A
:100A680000723CBF00F50000704700F0004343F0FF
:100A7800FE4040F4000070477FEA226216BF084635
:100A88007FEA23630146420206BF5FEA412390EAF8
:100A9800010F40F4800070474FF0000304E000BFEE
:100AA80010F0004348BF40425FEA000C08BF70479F
:100AB80043F0964301464FF000001CE050EA010263
:100AC80008BF70474FF000030AE000BF50EA010278
:100AD80008BF704711F0004302D5404261EB410165
:100AE8005FEA010C02BF84460146002043F0B6438A
:100AF80008BFA3F18053A3F50003BCFA8CF2083AAF
:100B0800A3EBC25310DB01FA02FC634400FA02FCB7
:100B1800C2F12002BCF1004F20FA02F243EB0200BE
:100B280008BF20F00100704702F1200201FA02FC20
:100B3800C2F1200250EA4C0021FA02F243EB020013
:100B480008BF20EADC7070474FF0FF0C1CEAD05257
:100B58001EBF1CEAD15392EA0C0F93EA0C0F6FD018
:100B68001A4480EA010C400218BF5FEA41211ED0F6
:100B78004FF0006343EA501043EA5111A0FB0131E2
:100B88000CF00040B1F5000F3EBF490041EAD371B7
:100B98005B0040EA010062F17F02FD2A1DD8B3F133
:100BA800004F40EBC25008BF20F00100704790F0A2
:100BB800000F0CF0004C08BF49024CEA502040EAF4
:100BC80051207F3AC2BFD2F1FF0340EAC2507047BA
:100BD80040F400004FF00003013A5DDC12F1190FF8
:100BE800DCBF00F000407047C2F10002410021FA6A
:100BF80002F1C2F1200200FA02FC5FEA310040F182
:100C0800000053EA4C0308BF20EADC70704792F0FA
:100C1800000F00F0004C02BF400010F4000F013A32
:100C2800F9D040EA0C0093F0000F01F0004C02BF2D
:100C3800490011F4000F013BF9D041EA0C018FE79C
:100C48000CEAD15392EA0C0F18BF93EA0C0F0AD0A2
:100C580030F0004C18BF31F0004CD8D180EA0100C8
:100C680000F00040704790F0000F17BF90F0004F61
:100C7800084691F0000F91F0004F14D092EA0C0F43
:100C880001D142020FD193EA0C0F03D14B0218BFD6
:100C9800084608D180EA010000F0004040F0FE401C
:100CA80040F40000704740F0FE4040F440007047B8
:100CB8004FF0FF0C1CEAD0521EBF1CEAD15392EA37
:100CC8000C0F93EA0C0F69D0A2EB030280EA010C27
:100CD80049024FEA402037D04FF0805343EA1111C0
:100CE80043EA10130CF000408B4238BF5B0042F11E
:100CF8007D024FF4000C8B4224BF5B1A40EA0C00C3
:100D0800B3EB510F24BFA3EB510340EA5C00B3EBF4
:100D1800910F24BFA3EB910340EA9C00B3EBD10FE2
:100D280024BFA3EBD10340EADC001B0118BF5FEA34
:100D38001C1CE0D1FD2A3FF650AF8B4240EBC2505D
:100D480008BF20F0010070470CF0004C4CEA50201E
:100D58007F32C2BFD2F1FF0340EAC250704740F46D
:100D680000004FF00003013A37E792F0000F00F05F
:100D7800004C02BF400010F4000F013AF9D040EADD
:100D88000C0093F0000F01F0004C02BF490011F471
:100D9800000F013BF9D041EA0C0195E70CEAD15369
:100DA80092EA0C0F08D142027FF47DAF93EA0C0F50
:100DB8007FF470AF084676E793EA0C0F04D14B0234
:100DC8003FF44CAF08466EE730F0004C18BF31F0E6
:100DD800004CCAD130F000427FF45CAF31F00043E0
:100DE8007FF43CAF5FE700BF4FF0FF3C06E000BF79
:100DF8004FF0010C02E000BF4FF0010C4DF804CD9C
:100E08004FEA40024FEA41037FEA226C18BF7FEAAB
:100E1800236C11D001B052EA530C18BF90EA010FAD
:100E280058BFB2EB030088BFC81738BF6FEAE1703C
:100E380018BF40F0010070477FEA226C02D15FEAD8
:100E4800402C05D17FEA236CE4D15FEA412CE1D044
:100E58005DF8040B704700BF844608466146FFE70B
:100E68000FB5FFF7C9FF002848BF10F1000F0FBDED
:100E78004DF808EDFFF7F4FF0CBF012000205DF8E6
:100E880008FB00BF4DF808EDFFF7EAFF34BF01206B
:100E980000205DF808FB00BF4DF808EDFFF7E0FF04
:100EA80094BF012000205DF808FB00BF4DF808ED55
:100EB800FFF7D2FF94BF012000205DF808FB00BFB8
:100EC8004DF808EDFFF7C8FF34BF012000205DF89A
:100ED80008FB00BF4FEA4002B2F1FE4F0FD34FF0BC
:100EE8009E03B3EB12620DD94FEA002343F000438F
:100EF80010F0004F23FA02F018BF404270474FF03D
:100F08000000704712F1610F01D1420205D110F0C3
:100F1800004008BF6FF0004070474FF00000704776
:100F280042000ED2B2F1FE4F0BD34FF09E03B3EB4B
:100F3800126209D44FEA002343F0004323FA02F077
:100F480070474FF00000704712F1610F01D1420263
:100F580002D14FF0FF3070474FF00000704700BFDC
:100F680053B94AB9002908BF00281CBF4FF0FF3108
:100F78004FF0FF3000F00CB8ADF1080C6DE904CE6D
:100F880000F0E1F8DDF804E0DDE9022304B0704781
:100F9800704700BF4FF0FF3C06E000BF4FF0010C68
:100FA80002E000BF4FF0010C4DF804CD4FEA410CB0
:100FB8007FEA6C5C4FEA430C18BF7FEA6C5C1BD07D
:100FC80001B050EA410C0CBF52EA430C91EA030FFE
:100FD80002BF90EA020F0020704710F1000F91EA5B
:100FE800030F58BF994208BF90422CBFD8176FEA29
:100FF800E37040F0010070474FEA410C7FEA6C5CF7
:1010080002D150EA013C07D14FEA430C7FEA6C5CFD
:10101800D6D152EA033CD3D05DF8040B704700BF29
:101028008446104662468C461946634600E000BF77
:1010380001B5FFF7B7FF002848BF10F1000F01BD49
:101048004DF808EDFFF7F4FF0CBF012000205DF814
:1010580008FB00BF4DF808EDFFF7EAFF34BF012099
:1010680000205DF808FB00BF4DF808EDFFF7E0FF32
:1010780094BF012000205DF808FB00BF4DF808ED83
:10108800FFF7CEFF94BF012000205DF808FB00BFEA
:101098004DF808EDFFF7C4FF34BF012000205DF8CC
:1010A80008FB00BF4FEA410C7FEA6C5C02D150EAB2
:1010B800013C0AD14FEA430C7FEA6C5C02D152EA48
:1010C800033C02D14FF0000070474FF00100704719
:1010D8004FEA410212F5001215D211D56FF4787358
:1010E800B3EB625212D94FEAC12343F0004343EAFB
:1010F800505311F0004F23FA02F018BF40427047D6
:101108004FF00000704750EA013005D111F000405F
:1011180008BF6FF0004070474FF00000704700BFF5
:10112800430803F05533C01A00F03333800800F049
:10113800333018444FF0013300EB101000F00F303B
:101148005843000E70472DE9F04786468C460846FE
:10115800154674461946089E002B40F0C280854209
:10116800B2FA82F245D94AB1C2F1200300FA02FC70
:101178002EFA03F3954043EA0C0C94404FEA154EBF
:10118800BCFBFEF8A8B20EFB18CC08FB00F9230C38
:1011980043EA0C43994528D9EB1808F1FF3704D2E4
:1011A800994502D9A8F102072B44A3EB0903B3FB25
:1011B800FEFC0EFB1C330CFB00F0A4B244EA034413
:1011C800A04214D92C190CF1FF3304D2A04202D941
:1011D800ACF102032C44241A43EA07401EB1002351
:1011E800D44034607360BDE8F0874746DDE7634666
:1011F800F1E792BB0121431B4FEA154EB3FBFEFCFE
:10120800AFB20EFB1C330CFB07F8200C40EA03437B
:10121800984562D9EB180CF1FF3004D2984502D9F1
:10122800ACF102002B44A3EB0803B3FBFEFC0EFB5E
:101238001C330CFB07F7A4B244EA0344A7424ED977
:101248002C190CF1FF3304D2A74202D9ACF10203E6
:101258002C44E41B43EA0040C0E7C2F12003954058
:1012680020FA03F12EFA03F34FEA154EB1FBFEFC08
:1012780090400343AFB20EFB1C100CFB07F8190C8F
:1012880041EA0041884504FA02F422D969180CF1B0
:10129800FF3004D2884502D9ACF102002944A1EB01
:1012A8000801B1FBFEFC0EFB1C110CFB07F79BB2FF
:1012B80043EA01439F420ED9EB180CF1FF3104D2E7
:1012C8009F4202D9ACF102012B44DB1B41EA0041E9
:1012D80092E76046E3E76146F7E76046A3E76346BF
:1012E800B7E7834206D916B9002108467BE7C6E965
:1012F80000E0F9E7B3FA83F78FB9834201D3724567
:1013080008D8BEEB020460EB030301209C461EB91B
:10131800002168E73846FAE7C6E9004CF8E7C7F164
:10132800200CBB4022FA0CF41C434FEA144920FA63
:101338000CF3B3FBF9F8B8402EFA0CF101430EFA9E
:1013480007F509FB18301FFA84FE08FB0EFA0B0C90
:1013580043EA00439A4502FA07F240D9E31808F134
:10136800FF3004D29A4502D9A8F102002344A3EB26
:101378000A03B3FBF9F809FB183308FB0EFE89B220
:1013880041EA03418E452CD9611808F1FF3304D294
:101398008E4502D9A8F10203214443EA0040A0FB8C
:1013A8000298A1EB0E014145CE46434602D306D131
:1013B8004D4504D2B9EB020E68EB04030138002E48
:1013C800A6D0B5EB0E0261EB030101FA0CFC22FA80
:1013D80007F34CEA0303F940C6E9003198E74046B1
:1013E800C5E74346D9E7034613F8012B002AFBD18A
:1013F800181A0138704700002DE9F04F83B0324DBC
:10140800284608F0DDFC2968002851D02F480CF048
:101418008DFC2F4CDFF8BC80DFF8BCB0DFF8BCA037
:10142800AD68DFF8BC903BE00D216A462B69264881
:101438009847DDE900702D2FA8BF2D270A2FB8BFC8
:101448000A270097FEF7A6FF1DA3D3E90023FFF79D
:1014580035F90246384616460F46FEF79BFF0B46FF
:10146800024639463046FEF749FEFFF70FFA236871
:1014780043F00203236002F017FAC8F8000044F6AC
:10148800206000210AF05CFE2368072B06D1DBF8F8
:101498000010DAF808301148DB6898470023236009
:1014A8003921EB68084898470028BDD04846E2E74C
:1014B8000C4803B0BDE8F04F0CF038BCAFF3008027
:1014C8000000000080842E41E4F70008340201087F
:1014D8009C0A0020A80A0020A00A00209CF7000807
:1014E8009A99B142AC0001082DE9F04F14461D4607
:1014F800476A97B08346CDE90445239E7FB91020FB
:101508000BF0DAFE0246CBF8240020B9EA21A24B00
:10151800A2480BF0A1FEC0E901770760C760DBF8BD
:101528002430196859B15A68012393404A608B6086
:1015380058460CF057FF0022DBF824301A602B1EA7
:10154800AFBF0023012223F000430593A8BF3360F7
:10155800059F934BB8BF3260BB4319D142F20F735A
:10156800229A1360C7F31303234300F0E085249BFA
:1015780053B98C4B21E08C4B08930833249A1360A1
:10158800089817B0BDE8F08F864B08930333F5E74A
:10159800DDE90423CDE90C23DDE90C010022002359
:1015A800FFF74EFD804650B10123229A1360249B19
:1015B80013B17E4B249A13607D4B0893E0E714AB7C
:1015C800019315AB00935846DDE90C230DF08AF919
:1015D800C7F30A560390002E7BD0DDE90C010D9B62
:1015E800A6F2FF36C3F3130343F07F5343F44013CB
:1015F800CDF84C80194600226E4BFEF77DFD60A3A6
:10160800D3E90023FEF730FF5FA3D3E90023FEF7F9
:1016180075FD044630460D46FEF7BCFE5CA3D3E9D3
:101628000023FEF721FF02460B4620462946FEF717
:1016380065FD04460D46FFF74BFD002207460023D3
:1016480020462946FFF706FD40B13846FEF7A2FEC0
:1016580022462B46FFF7F4FC00B9013F162F55D858
:10166800DDE90C01544B03EBC703D3E90023FFF773
:10167800F1FC00284CD00023013F1293149B9B1BC4
:101688005A1E49BFC3F101030023069300230A929F
:1016980054BF06930A93002F3CDB0A9B0F973B44E9
:1016A8000A9300230B93209B092B00F28980052BBA
:1016B800C4BF043B2093209BC8BF0024A3F10203AE
:1016C800D8BF0124032B00F28680DFE803F02B3813
:1016D8003657DDE914631E4406F23243202BC1BF9E
:1016E800C3F140039F4006F2124324FA03F3D6BF26
:1016F800C3F1200347EA030004FA03F0FEF73AFEB9
:101708000122A1F1F873013E139273E70123B4E7B4
:101718001290B3E7069BDB1B06937B420B930023D7
:101728000F93C0E700230E93219B002B56DC012367
:1017380099461A46099321920CE00123F3E7002306
:101748000E93219BFB1803F1010909934B46012BCA
:10175800B8BF012300210422DBF8240002F114059C
:101768009D423FD9416058460CF0FCFD0890002886
:101778003BD102464FF4D571104BC9E60123DFE790
:1017880061436F63A787D23FB3C8608B288AC63F7F
:10179800FB799F501344D33FCF320108E63201084A
:1017A8000000F07FCB320108C23201089F320108E5
:1017B8009E3201080000F83FE0FA00085A33010899
:1017C800012400230E9420934FF0FF330022994602
:1017D80009931223AFE701230E93F5E7219B99465E
:1017E8000993B7E701315200B8E7DBF82430089ACB
:1017F800B9F10E0F1A606FD8002C6DD0002F36DDAE
:10180800A14B07F00F0203EBC203F805D3E900343C
:10181800CDE910344FEA271417D5DDE90C019B4BAD
:101828004FF00308D3E90823FEF748FFCDE9040188
:1018380004F00F04954D5CB9DDE91023DDE90401DE
:10184800FEF73CFFCDE904012BE04FF00208F1E779
:10185800E10709D5DDE91001D5E90023FEF704FE0B
:10186800CDE9100108F1010864100835E3E700F03C
:101878000781DDE90C017C42834B04F00F0203EB86
:10188800C203D3E90023FEF7EFFD4FF0020800235F
:10189800CDE904017D4D2411002C40F0E580002B9A
:1018A800D0D1DDE90445129B002B00F04C810022C9
:1018B80020462946764BFFF7CDFB002800F04381F0
:1018C800B9F1000F00F03F81099B002B00F3E48081
:1018D800DDE90C34CDE90434159B002B02DB0E2F17
:1018E80040F342820E9A002A40F0678200250B9C42
:1018F800DDF81880B8F1000F0DD00A9B002B0ADD27
:101908004345A8BF4346069AA8EB0308D21A069295
:101918000A9AD31A0A930B9B0BB30E9B002B00F069
:10192800A682002C00F0A1822946224658460CF0D7
:101938007FFE039A0146054658460CF0D1FD0399EF
:10194800064658460CF04EFD0B9B1B1B0B9300F0F4
:10195800918231460B9A58460CF06AFE0390012199
:1019680058460CF0A7FD0F9B0446002B00F084821C
:101978001A46014658460CF05BFE209B0446012B94
:1019880003DC049B002B00F07C820026236904EB17
:10199800830318690DF05BFC0F96C0F120000A9BC9
:1019A800184410F01F0000F09182C0F12003042BAE
:1019B80040F38182069BC0F11C00034406930A9BF6
:1019C800804403440A93069B002B05DD1A465846BB
:1019D80003990CF087FE03900A9B002B05DD214636
:1019E8001A4658460CF07EFE0446129B002B00F067
:1019F8007682214603980DF079FC002880F26F82E8
:101A080000230A22584603990CF00EFD0E9B7E1EF9
:101A18000390002B00F05C82002329460A225846D6
:101A28000CF002FD099B0546002B03DC209B022BD2
:101A380000F35E82B8F1000F05DD2946424658469C
:101A48000CF050FE05460F9B002B00F0D082584644
:101A580069680CF087FC0746002840F07F82024640
:101A680040F2EA210B4B53E5E20706D5D5E90023FE
:101A7800FEF7FAFC012308F10108641008350BE7AA
:101A88004FF002080DE700BFE0FA0008B8FA0008B6
:101A98000000F03F5A330108204600222946AC4B8B
:101AA800FEF7E2FCCDE90401099C7E1E08F101085D
:101AB8004046FEF76FFCDDE90423FEF7D5FCA54B95
:101AC8000022FEF71BFBA1F15073CDE91001119321
:101AD800002C3BD1DDE9040100229F4BFEF70CFBF3
:101AE80002460B46CDE90423DDE91023FFF7D0FABF
:101AF800002840F05781DDE9102101F10043DDE9BC
:101B08000401FFF7A7FA00283FF4E2AE00242546B7
:101B1800219BDDF820A0DE434FF0000821465846FF
:101B28000CF060FC002D00F0A980B8F1000F05D082
:101B3800A84503D0414658460CF054FC294658465F
:101B48000CF050FC9AE03E464C46B1E7834B03EB61
:101B5800C40353E90201089B1C440E9B002B4AD086
:101B680002460B4600207E49FEF7A8FDDDE910235A
:101B7800FEF7C2FACDE91001DDF820A0DDE9040185
:101B8800FFF7A6FA0546FEF705FC02460B46DDE917
:101B98000401FEF7B1FA303502460B46CDE90401DF
:101BA800DDE910010AF8015BFFF772FA002865D138
:101BB800DDE9042300206B49FEF79EFA02460B4636
:101BC800DDE91001FFF764FA002840F00D81A24515
:101BD80000F0EA80DDE9100100225D4BFEF744FCCD
:101BE8000022CDE91001DDE90401594BFEF73CFC68
:101BF800CDE90401C2E7DDE91023FEF735FCA04674
:101C0800CDE91001DDF820A0DDE90401FFF760FA55
:101C18000546FEF7BFFB02460B46DDE90401FEF769
:101C28006BFA02460B4630350AF8015BA245CDE94E
:101C380004234FF0000223D1DDE91001484BFEF7E1
:101C48005DFA02460B46DDE90401FFF721FA002898
:101C580040F0CA80DDE9102300204149FEF74CFA24
:101C680002460B46DDE90401FFF7F4F970B1C246FC
:101C78001AF8013C08F1FF38302BF8D0374655E008
:101C8800334BFEF7F1FBCDE90401BDE7DDE90C3488
:101C9800CDE90434159B002BFFF628AE0E2F3FF735
:101CA80025AE2E4B03EBC703D3E90034CDE9063448
:101CB800219B002B02DAB9F1000F64D0DDE904455D
:101CC800DDF820A0DDE9062320462946FEF7F6FCCC
:101CD800FFF7FEF90646FEF75DFBDDE90623FEF792
:101CE800C3FB02460B4620462946FEF705FA06F1D5
:101CF80030040AF8014B089C0246AAEB0404A145EB
:101D08000B4640F08280FEF7F9F9DDE90623044628
:101D18000D46FFF7BDF9002865D1DDE90623204609
:101D28002946FFF78DF908B1F3075CD458460399A3
:101D38000CF058FB00238AF80030229B01371F6003
:101D4800249B002B3FF41CACC3F800A018E400BF90
:101D58000000244000001C4000001440E0FA000885
:101D68000000E03F0000F03FA24B03EBC703D3E9BC
:101D78000034CDE90634219B002B9FDAB9F1000F1E
:101D88009CDC7FF4C3AEDDE9060100229A4BFEF726
:101D98006BFBDDE90423FFF771F9044600287FF4A3
:101DA800B5AE3E462546B4E0DDE90C34CDE9043451
:101DB800159B002B01DB0E2FD6DD209A012A36DC7D
:101DC800139A82B303F233430B9CDDF81880069A0A
:101DD80001211A4406920A9A58461A440A920CF0AB
:101DE80069FB054686E53E4653469A4613F8012D9B
:101DF800392A06D1089A9A42F7D130220899013631
:101E08000A701A7801321A7038E700227B4BFEF705
:101E18002BFB0022002304460D46FFF711F900288A
:101E28003FF450AF82E7149BC3F13603CCE70B9B1A
:101E380009F1FF34A34208DBB9F1000FA3EB040456
:101E48000EDB4B46DDF81880C1E70B9B0F9AE31AAF
:101E58001A440B944B460024DDF818800F92B6E71D
:101E6800069BA3EB09080023B1E7039E71E50B9AD3
:101E7800039970E5039672E5209B012B17DC049B00
:101E8800ABB9059BC3F313039BB9059B23F000462D
:101E9800360D360536B10126069B013306930A9B9B
:101EA80001330A930F9B002B7FF470AD0F9601202E
:101EB80075E50026F6E73FF486AD069A1C331A440A
:101EC80006920A9A98441A440A927CE50346F4E773
:101ED800099B002B2BDC209B022B09DC27E0B9F1A6
:101EE800000F1DDC209B022B1ADD3E46CDF8249006
:101EF800099B002B7FF40CAE2146052258460CF0B6
:101F080093FA0146044603980DF0F0F900287FF78C
:101F1800FFAD3123DDF820A001360AF8013BFBE5CF
:101F28000E9B3E46CDF82490002B7FF483AD089F8E
:101F3800214603980DF001F8089B00F13009099A31
:101F480007F8019BFB1A9A4240F3CB8000230A2230
:101F5800584603990CF068FA0390E9E72A6905F1F5
:101F68000C01023292000C300CF078FE0122394646
:101F780058460CF0B7FBA8460546089B03F1010A32
:101F8800DDE9082313440A93049B03F001030B9330
:101F98000AF1FF332146039806930CF0CEFF414621
:101FA800099000F1300903980DF0A0F92A4621465E
:101FB800074658460CF002FCC268014602B3584670
:101FC8000CF010FA002F3ADA0122039958460CF067
:101FD80089FB214603900DF089F9002803DC29D1FB
:101FE80019F0010F26D0B9F1390F1DD132E028467A
:101FF800C1E700BFE0FA00080000144000002440D8
:102008000E9003980DF072F90E990C9058460CF04A
:10201800E9F90C9A5ABB209B53B90B9B43B9B9F108
:10202800390F17D0002F05DD099B03F1310901E0B5
:10203800002F2ADADDF818A00AF8019B6EE5209B2C
:102048003B4304D1049B03F00103002BBCD0B9F13E
:10205800390F36D13923069F07F8013BBA461AF8DB
:10206800013C013F392B5AD001333B7056E5002F14
:1020780006DB209B3B4306D1049B03F0010313B905
:10208800002AA1DCD6E7002AE1DC0A9B5746534523
:102098000AF8019C2ED000230A22039958460CF016
:1020A800C3F9A84503904FF000034FF00A024146D8
:1020B80058460BD10CF0B8F9804605460AF1010ADA
:1020C80066E7DDF818A009F10109B5E70CF0ACF9ED
:1020D8002946804600230A2258460CF0A5F90546F1
:1020E800ECE7099B4FF00008002BCCBF1F460127E7
:1020F800089B1F440122039958460CF0F3FA214625
:1021080003900DF0F3F80028A8DC02D119F0010FB4
:10211800A4D1BA4617F8013D302BFAD0FEE4089B4B
:10212800BB429BD13123089A01361370F6E4249BF5
:10213800002B7FF420AA014BFFF73FBAC2320108F7
:10214800704700BF022380F86430704700EB4100FD
:10215800B0F94200704700BF406B08B1836B184765
:10216800704700BF406B08B1836B1847704700BFCA
:1021780038B5054CA4F1140554F8040D08B103F062
:10218800D5FFAC42F8D138BD9C0A002010B50446F2
:102198000AF024FF204610BD10B504460AF01EFFC1
:1021A800204610BD10B5054C20460AF017FFA4F1D3
:1021B8004000BDE810400AF011BF00BFF007002042
:1021C800034608B10846184705490648AF2310B525
:1021D800054A03F02FFBAF21034803F023FB00BFA0
:1021E800D8FB0008E8FB0008A8FB0008012A02D178
:1021F800016000207047022A05D0032AF9D0002A7E
:10220800F7D10260F5E70B680360F2E7D0B54FEA53
:10221800421C4FEA431EBCEB020C4EEAD26E6EEB38
:10222800030E4FEA4E2E4EEADC5E4FEA4C2C1CEBB6
:10223800020C43EB0E0E4FEA8E1104464FEA8C1047
:10224800B0EB0C0041EA9C6161EB0E01801882B092
:1022580043EB0101074A0023FEF782FE0026002710
:1022680002460B462046CDE900670AF085FE02B01B
:10227800D0BD00BFA086010030B5164B00EB410071
:1022880003EB01125579B0F9424083B0F5B1D0792A
:102298000901042808BF5A5803EB010008BF9268D7
:1022A80090F80AC09289857B04FB02F21CF0200F8B
:1022B8000B4418BF05F1FF35987901A918BFEDB295
:1022C800019204F01FF908B9019C2C41204603B083
:1022D80030BD00BF480301080B4B984203D0403380
:1022E800984208D0704709488368DB69002BF9D009
:1022F80001220749184707488368DB69002BF1D09A
:1023080001220549184700BFB0070020ACF60008B5
:10231800440B00207CF60008500B0020012310B568
:1023280003FA01F1436804691B6819420FD0236856
:10233800194218BF82F0010222B1BDE8104083683B
:10234800DB6818478368BDE810401B6918470749D0
:1023580040F25C53064A074803F06CFA064803F05B
:1023680069FA40F25C51024803F05CFA3CFC000850
:1023780008FC0008E8FB00087CFC00082DE9F04197
:1023880012F0FC6F0569D0E901766AD1134602F0B4
:102398003002302A56D0494A494C1A40A24242D00B
:1023A80003F00602042A32D013F4402207D09C031B
:1023B80075D5B2F5402F1BD0424A9A4315D04FF03D
:1023C800010C3C680CFA01FC1CEA040F23F480128F
:1023D80056D02C68DB074CBF4CEA040424EA0C04F2
:1023E8002C603368BDE8F041184783F44023E6E7E2
:1023F800354940F2E523354A354803F01BFA35489C
:1024080003F018FA40F2E521304803F00BFA32499C
:102418002F4840F2DE232D4A03F00CFA40F2DE2169
:102428002A4803F0FFF92D4940F2DB23274A2848C0
:1024380003F000FA2A4803F0FDF940F2DB212348B3
:1024480003F0F0F9274940F2D723204A204803F047
:10245800F1F9254803F0EEF940F2D7211B4803F0C3
:10246800E1F922494FF43573184A194803F0E2F9A3
:102478001F4803F0DFF94FF43571144803F0D2F91F
:102488001C4940F2F123114A114803F0D3F91A48C4
:1024980003F0D0F940F2F1210C4803F0C3F91749D1
:1024A80040F2E123094A0A4803F0C4F9144803F04A
:1024B800C1F940F2E121054803F0B4F90200030034
:1024C8000200010001001000E0FE000808FC0008FE
:1024D800E8FB000824FF000828FE000890FD00081B
:1024E800D8FD000814FD000850FD000890FC000805
:1024F800F0FC00083CFC00087CFC00085CFE0008BE
:10250800A4FE000803488368DB6913B1012202496D
:102518001847704794F600082C0B002010B5094A9C
:10252800C36D0446026023B100F15401032208463A
:102538009847E36C23B104F1440103220846984705
:10254800204610BD30030108F0B596460446002128
:102558004FF4806C02270C26264A0161C0E901E28B
:10256800021D87B0C4E9052C0C9D303004F14002EF
:10257800616202AB84F82460E0602762A466E162CD
:10258800E261029104F114065960D5E9027C2FB189
:10259800A960E96095E8030083E8030093E8030075
:1025A8006D4685E8030004F1440292E8030083E8DD
:1025B800030095E8030082E80300E56C226DE764F8
:1025C8000495C4F850C005921DB103221946184657
:1025D800A847002284F864200748314683689B682E
:1025E800984708B907B0F0BD6121044B044A054873
:1025F8000AF032FE4129000824F7000850FF0008BD
:102608005CFF0008D0FF000894460223F0B50C21B7
:1026180000264FF480672D4A0362C0E901C200F129
:102628003002C260C36C021D87B0426100F14002F3
:102638004662876104460C9D066180F82410806616
:10264800C662C26100F1140733B100F144010322EC
:1026580008469847E66426650022D5E9026C02AB75
:1026680002925A602EB195E8030083E80300AA603D
:10267800EA606D4693E8030085E8030004F154021C
:1026880092E8030083E8030095E8030082E803006A
:10269800E56D226EE6650495C4F860C005921DB12B
:1026A800032219461846A847002284F864200848DF
:1026B800394683689B68984708B907B0F0BD7A2106
:1026C800044B054A05480AF0C7FD00BF4129000828
:1026D80024F7000850FF000804000108D0FF000894
:1026E80030B5836B04469A6A83B0012A1AD901214E
:1026F8001B4AD86A02EB0010807A00F01F00814064
:102708009961A16BCB6A02EB03139B7B81F82430A0
:10271800A16BCB6A1B01D058836800229B681431D7
:102728009847B8B9E3698BB1A26B256AD36A04F1FB
:1027380014006BB104EB4304B4F91020013BADF86D
:10274800022001930DF1020201A9A84703B030BD90
:10275800936AEFE7A821034B034A04480AF07CFD7B
:102768004803010850FF00087C000108D0FF00085A
:1027780030B5394887B043681B68DA065CD5036909
:102788000393846805A963689847002843D0BFF37A
:102798005B8F324B53E8001F013143E80012002AD7
:1027A800F8D1BFF35B8FE3691BB100222C492A489B
:1027B80098472C4B0025D3E9002451016301891A5D
:1027C80043EAD26363EB04034FEA412C5B021CEB40
:1027D800020C43EAD15344EB03034FEA8C109901EE
:1027E800B0EB0C0041EA9C6161EB0301801844EBFB
:1027F800010100231C4AFEF7B3FB002402460B46E6
:102808001A48CDE900450AF0B7FB194807B0BDE8FA
:10281800304009F083BF039A059B12685340DB06DA
:10282800B5D4BFF35B8F0D4B53E8001F013943E864
:102838000012002AB5D0F7E70E4940F203530E4ABA
:102848000E4802F0F7FF0E4802F0F4FF40F2035181
:10285800094802F0E7FF00BF94F60008280B0020A3
:102868002C0B002068070020A08601002807002004
:10287800200B00203CFC000808FC0008E8FB0008CE
:102888007CFC00082DE9F04D0F46254C254E264DC1
:1028980082B004F11808BC420CD00C34A04506F1F3
:1028A800400605F10805F6D1204802B0BDE8F04D14
:1028B80009F034BF28688368DB6913B10022214618
:1028C80098471B4B4FF0000AD3E9000143014A0126
:1028D8001B1A42EAD06262EB0102520242EAD35268
:1028E8005B021B1841EB02024FEA831C4FEA821E6F
:1028F8004EEA936EBCEB03036EEB020E18180D4AFA
:102908004FF0000341EB0E01FEF72AFB4FF0000BDE
:1029180002460B463046CDE900AB0AF02DFBBCE77A
:10292800440B0020B0070020580301083C0B00208E
:1029380030080020A086010010B50B6882B09C68A2
:10294800A26BB4F91010D36A04EB4303598294F8CC
:102958003400022821D0936A012B20D0D36A013396
:10296800D362A26B916A8B422DD20021E36A84F86C
:102978003410002B4FD0D36A04F1240004EB430138
:10298800B1F91010013BADF802100193236B0DF162
:10299800020201A9984794F8340002B010BDE26A17
:1029A80084F83430002A36D00023ADF802100193A1
:1029B80004F12400236B0DF1020201A9984794F851
:1029C800340002B010BD94F83430012B09D0012333
:1029D80084F83430D36A013BD36294F8340002B0EF
:1029E80010BD002384F83430D362E36A9BB1A36B33
:1029F8000DF102029B6A01A904EB4300B0F9100033
:102A0800013BADF80200019304F12400236B9847C1
:102A180094F83400C1E7204608F0A8F994F8340087
:102A280002B010BD2DE9F04F8BB0874807F0C8F908
:102A3800002800F0F480844C8448216801F056FC9A
:102A48004FF4D0120C218248FFF798FC814DA16801
:102A580004230C682A4600217B48A047011EC0F2C7
:102A6800E6802B684FF0000A0024DFF8ECB17B4FBA
:102A78007B4E039383E05046FEF712F880463146BA
:102A88002046FEF715F94146FEF712F94146FDF7D3
:102A980053FF4FF07C51FEF757F8FEF71BFA714BC6
:102AA80082461868FDF788FC0B46642102466E488A
:102AB80090F800C06D4801FB0CFC6D4981FB0CE1EE
:102AC8006144C911C1F1630100910BF02FF9694B01
:102AD8001B78002B74D0BFF35B8F674B1868BFF36C
:102AE8005B8FFDF7DDFF3146FEF7E2F8634980466C
:102AF800FEF7C8F9002840F08D8040466049FEF78F
:102B0800DFF9002800F099800022DFF874815D4B1E
:102B18005D495E48CDE90423C5F8008001F094FBC7
:102B2800DDE9042300280CBF78214C210091AAF18B
:102B38000A01C9B2019106A855490BF0E9F906A89E
:102B48000BF0F4F803992868FEF792F9014648B9A2
:102B58003D4B404A9B683C48D3F804800423C04757
:102B68002B680393DBF800302BB1013BCBF8003026
:102B78000BB9404A13703B6843F004033B600021E3
:102B88004FF47A7009F0DCFA31462046FEF790F8E7
:102B980001462046FDF7CEFE3C4B04463D49986A67
:102BA800FEF786F80146FDF7CFFF2146FDF7C4FE84
:102BB8000446BAF1000F7FF45EAF4FF07E585EE72F
:102BC80031462868FDF7C0FFFEF784F9BFF35B8F35
:102BD800294951E8003F41E80002002AF9D1BFF332
:102BE8005B8F2868FDF7E8FB804689462748264919
:102BF80001F02AFB00280CBF78214C210091AAF192
:102C08000A01C9B2019142464B46234906A80BF076
:102C18007FF994E70022DFF86480204B78E70A4BBD
:102C28001F4819680BB0BDE8F04F01F05FBB1D48A5
:102C38000BB0BDE8F04F01F059BB4046FDF7BCFBB7
:102C480002460B4664E700BFCCF700080001010804
:102C580094F60008AC0A0020A40A00209C0A002070
:102C680000002041A80A0020280300204401010890
:102C7800E92FA0BFF10D0020280B00200000904193
:102C88000000344200804640CDCC4C3DD80A00209C
:102C980058010108DB0FC9406C01010800003240EF
:102CA800AC0001081C010108F0B5654B93B0196828
:102CB80064488368DB689847634C204607F080F8CF
:102CC800002800F0B080A36820461B685F49984739
:102CD8000646002840F0A0804FF4B01207215C4857
:102CE800FFF74CFB5B4801F0CBF9002141F288303B
:102CF80009F026FA02220C23FA204FF48061564D7F
:102D080001AC2A62554ACDE90446AA6005F13002B1
:102D1800534F6B62EA60534B2A1DEC6C6A6105F1F4
:102D2800400207972E61AD66EE626860A96106935E
:102D3800EA61002C64D005F1440103220846A0474B
:102D4800DDE906C708AC0896EE64C4E901662E659D
:102D58000B97BCF1000F55D194E8030002AA82E852
:102D68000300EE6D404BC5F85CC0D5F860C093E831
:102D780003002F6684E8030092E80300CDE90A6C9B
:102D880083E803001EB1032221462046B0470022F3
:102D980085F864203548364983689B689847002839
:102DA80048D1069B1BB104A9032208469847002373
:102DB800304A314831490992314A08902046CDE9D4
:102DC8000A33CDE90F330C910E920D9301F0DCF824
:102DD80020462C4901F0DCF82B4F2C4E2C4D0021BD
:102DE80041F2883009F0ACF931683868FDF7A2FD86
:102DF8000146204601F0CCF8FEF792F82870EEE77D
:102E08009C4608AC04AB93E803000022002384E846
:102E18000300CDE906239FE701461E4813B0BDE82D
:102E2800F04001F063BA21681B4813B0BDE8F040D8
:102E380001F05CBA7A21194B194A1A480AF00CFABF
:102E4800A00A00209CF700083CF70008440301088A
:102E58007CF60008D80A0020B8060020412900089E
:102E680041300008F52100080C07002024F700086D
:102E7800CC0600209A99193E0000F040CDCCCC3DFC
:102E880000002A4300007AC4A80A0020AC0A0020E7
:102E9800280300209C0101088001010850FF000858
:102EA80004000108D0FF000800B5124883B0436849
:102EB80002691B680192DA070CD5019B1B68DB07C6
:102EC8004FF00101836854BF1B69DB6803B05DF8EC
:102ED80004EB1847084940F25C53084A084802F0D6
:102EE800A9FC084802F0A6FC40F25C51034802F035
:102EF80099FC00BF94F600083CFC000808FC000898
:102F0800E8FB00087CFC000800B5124883B0436861
:102F180002691B6801921A050CD5019B1B681B05E9
:102F28004FF40061836854BF1B69DB6803B05DF828
:102F380004EB1847084940F25C53084A084802F075
:102F480079FC084802F076FC40F25C51034802F034
:102F580069FC00BFACF600083CFC000808FC00084F
:102F6800E8FB00087CFC00082DE9F0412D4C082600
:102F78000546D4F81080676882B020E0002B42D064
:102F8800019B1B68590434D5A3684FF4804120463F
:102F9800DB68984763686D001A68EDB252072369C9
:102FA80031D51B685B07A3684FF004014CBF1B6950
:102FB800DB6820469847731E13F0FF0620D03B6855
:102FC8005B0720D5D8F800305807A3684FF00401F4
:102FD80054BF1B69DB6820469847636822691B68F1
:102FE8002906019203F48043C8D563B113685804D5
:102FF800CAD5A3684FF4804120461B699847C9E7A2
:1030080002B0BDE8F081084940F25C53074A08481D
:1030180002F010FC074802F00DFC40F25C51034836
:1030280002F000FC94F600083CFC000808FC0008CC
:10303800E8FB00087CFC000830B50B78044683B038
:10304800B2F900000BB103B030BDFDF729FD374DD3
:103058000146284601F03EF8E86A3549FDF728FEA2
:103068003449FDF771FDFDF735FF4FF0B40C2368C7
:103078001860226813685A33136020682E4A036860
:1030880082FB0312D9171A44C1EBE2120CFB12336C
:10309800036023681A6802EB820302EB43022748A5
:1030A800022183685B6898472846254901F0CCF8D7
:1030B80048B12368234A1B681278934217DCAA2B6D
:1030C80001DC93420CDA204842680369126814064E
:1030D8001CD51B681B0614D4836880211B6998477C
:1030E8001A4A136843F00103136003B030BD164851
:1030F800436802691B680192190607D513681A0606
:10310800EAD483688021DB689847E9E7104940F2F0
:103118005C53104A104802F08DFB104802F08AFBFD
:1031280040F25C510B4802F07DFB00BFD80A00203A
:10313800DB0F494000003443B7600BB63CF700088A
:10314800CDCC4C3D280300207CF600089C0A0020CA
:103158003CFC000808FC0008E8FB00087CFC0008B0
:10316800F8B505464FF0FF324FF0FF33644807F0DB
:103178006DF9002840F0B0800D2D064656D0614FFD
:103188003B78192B30D9604C626823691268900724
:1031980040F193801B689907A3684FF0020120460D
:1031A80054BF1B69DB689847B020FFF7DDFE00209D
:1031B800FFF7DAFE1120FFF7D7FE6268236912686D
:1031C80097077AD51B689E07A3684FF002014CBF8A
:1031D8001B69DB684C489847494807F015FA0028EE
:1031E80040F084802846F8BD0A2D22D00133DBB296
:1031F8000E2B3B7033D0A5F12003444EDBB203EB1A
:10320800430306EB4304063606EB430614F8010BAA
:10321800FFF7AAFEB442F9D13B781A2BDCD1002083
:10322800FFF7A2FE0020FFF79FFED5E7354B187089
:10323800A9E70D2BD0D80D21334C3970626823696A
:103248001268920739D51B689B07A3684FF00201E3
:1032580020464CBFDB681B699847B120A5E72A4C7C
:10326800FFF782FE3046FFF77FFE62682369126827
:10327800900722D51B689907A3684FF002014CBF3D
:10328800DB681B6920469847B120FFF76DFE0020D8
:10329800FFF76AFE1120FFF767FE6268236912686C
:1032A80092070AD51B689B07A3684FF002014CBF21
:1032B8001B69DB68144898479DE7154940F25C5341
:1032C800144A154802F0B6FA144802F0B3FA40F26C
:1032D8005C51104802F0A6FA11490F482223114AFE
:1032E80002F0A8FA22210F4802F09CFA0C490A4879
:1032F8002B230C4A02F09EFA2B210A4802F092FA7C
:103308005C0B0020700B002094F60008680301088D
:103318003CFC000808FC0008E8FB00087CFC0008EE
:1033280000020108CC010108002310B50446C0E9D9
:103338000033C0E90233036107F080F8204610BD6E
:103348002DE9F04F814687B07F4802F031FF002316
:103358007E4902220968886819460AF00FFD7C4DEB
:10336800052128467B4AFFF709F80021794A7A485F
:10337800FFF704F80D21774A7748FEF7FFFF4FF46F
:10338800B01201217448FEF7F9FF4FF4B0120E2174
:103398007148FEF7F3FF4FF4B01202216E48FEF7B2
:1033A800EDFF00216A682B6912688DF817109006E6
:1033B80040F176811B689906AB684FF020012846DA
:1033C80054BFDB681B6998479DF81730013BDBB297
:1033D8008DF81730002BF7D15F4C626823691268AB
:1033E800920440F15D811B689B04A3684FF400516F
:1033F8004CBF1B69DB68204698476A682B691268CE
:10340800970640F14D811B689E06AB684FF020017E
:103418004CBFDB681B694E4898479DF81730013B45
:10342800DBB28DF81730002BF7D162689A46126824
:103438002369950740F134811B689807A3684FF00A
:1034480002014CBFDB681B69434898470023434D82
:103458008DF817309DF81720531CDBB2A85C8DF847
:103468001730FFF781FD9DF817300D2BF2D9AF20EB
:10347800FFF77AFDB020FFF777FD6368D4F810B046
:10348800354F0293CDF80C90029B1B68990740F1C9
:103498000781DBF800309A07A3684FF0020138462D
:1034A8004CBFDB681B69984755460826D4F810902E
:1034B800D4F8048022E0002B00F0F280019B1B6806
:1034C8005B0439D5A3684FF480413846DB689847D8
:1034D80063686D001A68EDB25007236940F1E08017
:1034E8001B685907A3684FF004014CBF1B69DB68D0
:1034F8003846013E984716F0FF0631D0D8F800301C
:103508005B0740F1CD80D9F800305807A3684FF029
:1035180004014CBFDB681B69384698476368226919
:103528001B682906019203F48043C4D5002B00F0E0
:10353800B78013685A04C5D5A3684FF4804138464C
:103548001B699847C4E700BF69310008580100208B
:103558007CF600080100160094F60008040601082D
:103568001020FFF701FD626823691268920740F195
:1035780097801B689B07A3684FF002014CBF1B692B
:10358800DB6838460AF1010A98475FFA8AFA002090
:10359800FFF7EAFCBAF1100F7FF476AF6268DDF846
:1035A8000C901268236997077AD51B689E07A36851
:1035B8004FF002014CBFDB681B6941489847B820AF
:1035C800FFF7D2FC00238DF817309DF817305F2BDA
:1035D80038D8276966683A4D3368980760D53B68DC
:1035E8009907A3684FF002014CBFDB681B692846A6
:1035F80098479DF8170000F00F00FFF7B5FC9DF8FD
:103608001700000940F01000FFF7AEFC626823695C
:103618001268920744D51B689807A3684FF0020107
:103628004CBF1B69DB68284698470020FFF79CFCC5
:103638009DF817300133DBB28DF817309DF817303D
:103648005F2BC9D9626823691268950728D51B685A
:103658009907A3684FF002014CBFDB681B69184843
:103668009847B020FFF780FC0020FFF77DFC112071
:10367800FFF77AFC626823691268920710D51B6805
:103688009B07A3684FF002014CBF1B69DB680C481D
:1036980098470023484689F8003007B0BDE8F08F06
:1036A800084940F25C53084A084802F0C3F8084841
:1036B80002F0C0F840F25C51034802F0B3F800BFD2
:1036C80094F600083CFC000808FC0008E8FB000829
:1036D8007CFC00082DE9F04D4FF0320A4FF0000B4A
:1036E8004FF001080646254B254DC3E900AB254C94
:1036F80005F11807E2882068217942F48032FEF744
:103708003DFE206821794368D0F808C01A6808FA95
:1037180001F31342D0F810E021D0DEF80020DCF8E5
:1037280018A0134214BF4FF000734FF080634FF09E
:10373800A072D04701222379134902FA03F32068C3
:103748006960AB608368DB690BB1294698470C3523
:10375800BD4204F10804CDD13046BDE8F08D0B49D7
:1037680040F28F230A4A0B4802F064F80A4802F034
:1037780061F840F28F21064802F054F83008002022
:10378800440B0020580301088D2800083CFC000861
:1037980008FC0008E8FB00087CFC000870B532242F
:1037A8000025214B0646C3E9004582B01F4C052180
:1037B80020461F4AFEF7E2FD042120461C4AFEF778
:1037C800DDFDD4E901351B6822699B0601921CD5F1
:1037D800019B4FF0A0721B68052113F0200F14BF46
:1037E8004FF000734FF080632046D5F818C0E047CB
:1037F8001049114AEB694A6020228A6013B10122FC
:1038080020469847304602B070BD0C4940F28F23DD
:103818000B4A0C4802F00EF80B4802F00BF840F285
:103828008F21074801F0FEFF6807002094F6000882
:10383800110001002C0B0020792700083CFC00082F
:1038480008FC0008E8FB00087CFC000838B50025E7
:10385800012310490446C0E91155C0E91355C0E9D0
:103868001555C0E91755016083620B480B498368F9
:103878001B689847021E06DB04F13000084907F070
:10388800F1F9204638BD2946064800F02FFD2046AC
:1038980038BD00BF3003010824F700084E030108B3
:1038A800E9260008100201082DE9F04F3E4C3F4A76
:1038B800217883B04B1CDBB2A2FB03520225019591
:1038C8001F25002702F0FC0C0CEB92029B1A384EC5
:1038D8002370EB074FF00109B84646F821004ED493
:1038E800012225FA02F1CC07134602F1010202D4A3
:1038F800052AF6D11346002456F823B025FA04F316
:10390800D80709D556F824A058465146FDF7D8FAE5
:1039180010B1D3465FFA84F80134052CEED109FAC8
:1039280008FB25EA0B0B1BF0010F38D101222BFAFB
:1039380002F1C907134602F1010202D4052AF6D1A1
:103948001346002456F823502BFA04F3DA0708D557
:1039580056F824A028465146FDF794FA08B1554672
:10396800E7B20134052CEFD1019B09FA07F5012BC9
:103978002BEA050505D001230193EB07B0D50023F9
:10398800B9E76D080DD000230133DBB2052B01D058
:103998006D08F9D156F8230003B0BDE8F08F002375
:1039A800CFE72B46F6E700BFF00D0020CDCCCCCCFE
:1039B800C000002038B504460D46382200210BF01F
:1039C8005BF9002220460349A56309F0C5FA646340
:1039D800204638BD6121000838B504460D46382216
:1039E80000210BF049F9002220460349A56309F09C
:1039F800B3FA6463204638BD6D21000810B5002372
:103A080004460846237121604FF0FF324FF0FF3320
:103A180006F01CFD18B901232371204610BD054985
:103A280005482A23054A01F005FF2A21034801F029
:103A3800F9FE00BF00020108E8FB00085C0201086B
:103A4800F0B587B02E4904A8FFF7D8FF64200021FD
:103A58002C4B00260027C3E900012B4C2B4D31E0ED
:103A6800039B1B681805A3684FF40061204654BFE8
:103A7800DB681B699847C82200232548CDE9006701
:103A880009F07AFA2348436802691B680392D90748
:103A980027D51368DB0783684FF001014CBF1B690A
:103AA800DB68984747F2305200231B48CDE900678E
:103AB80009F062FA3220194A19491378086083F02C
:103AC80001031370049931B14FF0FF324FF0FF3307
:103AD800284608F061FE636822691B6803921B058B
:103AE800BED4104940F25C530F4A104801F0A2FEC0
:103AF8000F4801F09FFE40F25C510B4801F092FE26
:103B0800B00A002030080020ACF600083C0B00206A
:103B18007007002094F6000838080020F10D0020F6
:103B2800A40A00203CFC000808FC0008E8FB000888
:103B38007CFC0008F0B587B0294904A8FFF75EFFB0
:103B480000260027274C284D2CE0039B1B681805EE
:103B5800A3684FF40061204654BFDB681B6998478F
:103B6800322200232148CDE9006709F005FA2048F0
:103B7800436802691B680392D90722D51368DB07DB
:103B880083684FF001014CBF1B69DB68984747F217
:103B980030520023CDE90067164809F0EDF93222CA
:103BA800154B1A60049931B14FF0FF324FF0FF33D3
:103BB800284608F0F1FD636822691B6803921B051B
:103BC800C3D40E4940F25C530D4A0E4801F032FE50
:103BD8000D4801F02FFE40F25C51094801F022FE29
:103BE800C40A0020ACF60008200B00207007002053
:103BF80094F6000838080020A40A00203CFC0008BD
:103C080008FC0008E8FB00087CFC0008F0B5044646
:103C18000025256089B00846D3E900CED2E9001214
:103C2800D3E902670F9BCDE9066701930E9BCDE9A7
:103C380003CE00930295044B06F0FCFA0346204697
:103C4800236009B0F0BD00BFC92100082DE9F04785
:103C58008EB0674C204606F0B3F8002800F0AD801F
:103C68004FF0020C00224FF4FA53A6688DF824C0D6
:103C7800CDE906232046B36806A998475D4D28601C
:103C8800863000F0A6802B68002BC0F2AD80A368B8
:103C980002211B68564898470028C0F296800021E8
:103CA80001225548FEF73AFB40F6B8320023534844
:103CB800FEF7ACFA52480AF039F852480AF036F8DA
:103CC800002142F2107008F03BFA0B2101224E4805
:103CD800FEF724FB0A2200234C48FEF797FA01223C
:103CE80000234FF4806604274FF000084FF00009C6
:103CF8000192474A474C484900920B9304AA9A46B6
:103D080003A80AAB0A970494CDE90C890596FFF736
:103D18007DFF02230193414B414D0093039B04EB2C
:103D2800060C40492B6004AA0AAB03A8CDF810C0C2
:103D38000596FFF76BFF032301933B4B04F5006CDB
:103D48000093039B39496B6004AA0AAB03A8CDF81A
:103D580010C00596FFF75AFF354B01970093039B58
:103D68003449AB6004AA0AAB04F5406703A805967A
:103D78000497FFF74BFF052104F5805404942C4663
:103D880001912D490AAB0091039904AAE96003A89F
:103D98002A490596FFF73AFF039B2B6154F8040B59
:103DA80028B14FF0FF324FF0FF3308F06FFB0AF1F4
:103DB800010ABAF1050FF1D103E02168204800F0AB
:103DC80095FA00200EB0BDE8F0871E4800F08EFA84
:103DD800F7E71D4800F08AFA002308932046B368E5
:103DE80006A9984728604EE7184800F07FFAE8E7E8
:103DF8009CF70008A00A002094F600083808002064
:103E08000803010818030108ACF600087007002031
:103E18003D3B0008F80D0020C0030020493A000887
:103E2800880A00205804002001140008F00400202B
:103E3800B12C0008880500202D2A00082006002043
:103E480090020108F0020108A8020108D80201083E
:103E58002DE9F041324C33492046FFF7ABFD2046AF
:103E68000024314D314F2A46394601F0A5FE30482D
:103E7800FFF766FA2F48FFF757FA2F48C0E90044C2
:103E8800DFF8B8802E4E08F043FC41463046FFF775
:103E9800A3FD414606F14000FFF79EFD294E2A4644
:103EA8002949204601F088FE2848FFF713FC3046D0
:103EB8002749FFF77FFD2A463946304601F07CFE48
:103EC8000B21244A2448FEF759FA2448C0E9004443
:103ED800234E08F01DFC30462249FFF77DFD2A4697
:103EE80021493046214E01F067FE2148FFF756FC74
:103EF8003046FFF7ABFC2A461E49304601F05CFE0F
:103F08001D4800F08DF81D48FFF70EFA1C48FFF712
:103F18000BFA2A462046BDE8F0411A4901F04CBE8A
:103F280038080020B12E0008740B0020A1210008D9
:103F3800700B00205C0B00203C0B0020E1220008E5
:103F4800B007002070070020AD210008380B0020C2
:103F5800112F000801001600ACF60008200B002005
:103F6800280700200D25000895210008B806002024
:103F78001C0B002025250008D80A0020C40A0020B0
:103F8800B00A00207921000800230362C36170474A
:103F98002DE9F8430446D0F8208089460846216870
:103FA800FCF7D2FD4146FCF7C7FC0546A669294641
:103FB8003046FCF767FF00282ED167692946384646
:103FC800FCF77EFF002829D029463846FCF7B2FCCA
:103FD80005466168E5614846FCF7B6FD0346216978
:103FE80028461D46FCF7B0FD01462846FCF7A4FC10
:103FF8004146FCF7A1FC0546304629462562FCF7F8
:1040080041FF28B9666928463146FCF73BFF00B1F5
:1040180026623846BDE8F8833746D5E72F46D3E70A
:10402800F8B5002200234FF08B410446DFF83CE04E
:10403800DFF83CC00F4F104E104DC0E90222076058
:1040480046600561C0F814E0C0F818C0C361036297
:10405800C362036480F82420C2848363C36301635A
:104068004363FFF791FF2046F8BD00BF1A34CCC365
:104078001A34CC4300803B440000704100002041CA
:10408800002200214FF08B4CF0B50D4F0D4E0E4D18
:104098000E4CDFF83CE00760466005614461C0F8FB
:1040A80018E0C262026480F82410C1848263C2638B
:1040B800C0F830C042638260BDE8F040FFF764BFDB
:1040C80000803B4400007041000020411A34CCC3FA
:1040D8001A34CC432DE9F043044683B0406B0D46B7
:1040E8005149FCF727FC06464F49206B6663FCF7ED
:1040F80023FC0746314628462763FCF7E1FE60B1FA
:104108002E466563E38C4E2B12D800220133E384DC
:1041180084F8242003B0BDE8F08339462846FCF72C
:10412800B1FE0028EED0E38C2F464E2B2563ECD948
:104138000123314684F824303846FCF7FDFB4FF064
:104148007C51FCF701FD01462846FCF7F3FB394694
:1041580005463046FCF7EEFBD4F838900146284671
:10416800FCF7A6FDD4F83C804946FCF7E3FB2F4951
:10417800FCF7EAFC4146FCF7DDFB2D49FCF7E4FCC3
:104188002C49FCF7E1FC4946FCF7D6FB2A49A06319
:104198000546FCF7D9FC4146FCF7CEFB0646274905
:1041A800E06AE663FCF7D0FC01AA694605F000FB6B
:1041B80001993046FCF7C8FC0346009928461D467D
:1041C800FCF7C2FC01462846FCF7B4FB0146002078
:1041D800FCF7B0FB064620463146FFF7D9FEE56AF4
:1041E80014490746FCF7B0FC2946FCF7A5FB14491F
:1041F8000546FCF765FE50B128461149FCF79AFBC5
:104208000546A762E562266403B0BDE8F083284648
:104218000C49FCF737FE0028F3D028460849FCF77C
:104228008BFB0546EDE700BF17B7D13EF4FDB43F61
:1042380063149D436F1283397CD9A03DE02E6542FB
:10424800DB0FC940DB0FC9C008B5034690F824004E
:1042580028B1186CFCF716FE003818BF012008BDFD
:1042680008B500F015F8BDE8084000F001B800BF37
:1042780038B5054C054DAC4204D254F8043B984778
:10428800AC42FAD338BD00BF44FA000848FA000827
:1042980038B5064D2C6844B1631C05EB8305013C19
:1042A80055F8043D9847002CF9D138BD38FA000874
:1042B8000020704700207047014B1B68184700BF5B
:1042C800D4000020014B1860704700BFD4000020C4
:1042D8000B46002100B583B002460091024800F069
:1042E80079F903B05DF804FBC14200080FB400215E
:1042F80000B585B006AB53F8042B0548009103932D
:1043080000F068F905B05DF804EB04B0704700BF31
:10431800C1420008044608B5084611461A46A04797
:1043280007F08CFF01F002FF30B500EBC104638891
:104338004FEAC10C5B08B3FA83F3C3F11F0300EB28
:1043480083052A690CF1040C1FFA81FE62B9012465
:104358009C40C3686EF30F022343C3606EF31F4291
:10436800296140F80C2030BDD3000433C15A20F82D
:104378000C1000EBC101E280A1F806E020F803E090
:1043880030BD00BFB2F5802F2DE9F0413CD2042AA0
:1043980067D9043ACE1D8C1826F0070624F00704C6
:1043A800A41B172C4FEAD4074CD9B7FA87F24FF061
:1043B8000008C2F12405AD000735ED086B1CBB42AF
:1043C8000660C2F12002C6E902782CD84146920064
:1043D80006F110000AF050FC6A0042F001027280F7
:1043E80001227B1B06EBC50103FA02F0A6F8008048
:1043F800488026F835503353344462802946304685
:10440800BDE8F041FFF790BF1D4940F2EB131D4A8C
:104418001D4801F00FFA1D4801F00CFA40F2EB11AB
:10442800184801F0FFF91A494FF40373154A164862
:1044380001F000FA174801F0FDF94FF40371114833
:1044480001F0F0F9144940F2FB130E4A0E4801F04E
:10445800F1F9104801F0EEF940F2FB11094801F0BA
:10446800E1F90E494FF4F973064A074801F0E2F9F9
:10447800084801F0DFF94FF4F971024801F0D2F968
:10448800FC06010828060108E8FB000814070108D3
:1044980098070108500701086C0701082C07010854
:1044A80030B59DF80C4061B3864618460EF1FF3EC4
:1044B8000EEB010508231EF8011F484084B100F0E7
:1044C8000101400882EA000CB1B1013B5FFA8CF0AF
:1044D800F5D1AE45EED130BD013B82EA0100F8D0FE
:1044E800410000068C46C9B2F6D4013B5FFA8CF055
:1044F800F6D1AE45DED1EEE7013BDFD1AE45D9D1ED
:10450800E9E7184630BD00BF2DE9F84F9846304F0F
:10451800D378924617F803906F2B05460C460A9EEF
:1045280009F003093FD039D903F0F703702B37D0CE
:104538000A27BB460AE0BD42DBB274F1000406F864
:10454800013D1ED346451CD905460C462846214642
:104558003A460023FCF704FD5FFA82FC092A0CF1B5
:104568003003E8D9B9F1010F0CBF0CF1370C0CF18D
:10457800570CBD425FFA8CF374F1000406F8013D54
:10458800E0D29AF800309B0605D5BBF1080F0DD094
:10459800BBF1100F13D03046BDE8F88F582BC7D1A8
:1045A8001027BB46D2E70827BB46CFE79AF8023068
:1045B800304643F008038AF80230BDE8F88F9AF8CD
:1045C8000230304643F010038AF80230BDE8F88F15
:1045D8007D3101082DE9F04F0546107899B090B16A
:1045E8008B461C464FF0000A561C252837460DD02E
:1045F8005946A847002806DB32460AF1010A107816
:104608000028F1D1504619B0BDE8F08F0021537849
:10461800CDE90A11252BCDE90C11CDE90E1100F0D9
:10462800EB8008468E46884689460291A3F1200110
:1046380010290AD8DFE801F0D70909D409090909BE
:10464800090909DD09DA0909D00028B19DF83010F7
:1046580041F040018DF83010BEF1000F05D09DF8F3
:10466800301041F020018DF83010B8F1000F05D05E
:104678009DF8301041F010018DF83010029929B1E1
:104688009DF8301041F008018DF83010B9F1000F95
:1046980005D09DF8301041F004018DF830109DF8D8
:1046A800301001F04400442800F066829DF8301074
:1046B8002A2B41F080018DF8301000F04282DFF89B
:1046C8007C829C4618F803103846490748BF0021E9
:1046D80017D510F8013FACF1300C18F803E001EBE6
:1046E80081011EF0040F0CEB41019C46F1D1874279
:1046F80007D09DF830700D91C90F61F341078DF80F
:1047080030702E2B0CBF012700279DF8311067F35E
:1047180041018DF8311028D143782A2B00F06782A7
:10472800DFF818821F4618F80310013011F0040151
:1047380008BF0F460ED0002110F8013F303F18F88F
:1047480003C001EB81011CF0040F07EB41011F4678
:10475800F2D1CF0F0E919DF830108C46C1F3400175
:104768000F4367F3410C8DF830C0A3F14C01471C8F
:104778002E2900F24582DFE811F059044302430272
:1047880043024302430243024302430243024302F9
:1047980043024302430243024302430243024302E9
:1047A80043024302430243024302430243024302D9
:1047B8004302690443025704430247044302430285
:1047C80043024302430243024302450443024302B5
:1047D8004302430243023804012017F8013F25E74A
:1047E8004FF0010EF9E74FF00108F6E74FF0010925
:1047F800F3E701230293F0E78DF833008C4608466F
:104808000F468846931C05939DF930E09DF830903B
:10481800BEF1000FACBF4FF0FF330D9B0493B8F10E
:10482800000F00F00781234653F8048BB8F1000FFE
:10483800039307DA4FF0FF389DF831306FF34103E7
:104848008DF831300023042F0D930E9300F0FF8074
:1048580009F00303012F029300F02981022F00F0D1
:104868007981032F04D1039B53F8041B0A91039306
:10487800029B002B40F008819DF833E0AEF1250340
:10488800532B57D8DFE813F0FF03560056005600A5
:104898005600560056005600560056005600560060
:1048A8005600560056005600560056005600560050
:1048B8005600560056005600560056005600560040
:1048C8001602560056005600160216021602560028
:1048D8005600560056005600560056005600560020
:1048E80056005600560056005600560056006F00F7
:1048F8005600560056005600560056005600560000
:104908001602560084015C001602160216025600B2
:104918005C00560056005600560015046F000B0444
:1049280056005600F20356006F00560056006F00FE
:10493800C3F800A0039C059A61E600BF7D31010819
:1049480019F0080F12BF2B23C9F300135B01029360
:10495800DDE90A23002B06DA524263EB43030B938B
:104968002D230A9202930DF15D04009411AB0CAA59
:10497800DDE90A01FFF7C8FD0646B8F1000F0BDBB9
:104988009DF830306FF386138DF83030A31B9845AF
:1049980002D9A8EB03030D93002ECBD0A31B0D9CCB
:1049A8009DF8327022460DF15D09029901B101337B
:1049B80017F01001069100F0F58002331A4417F041
:1049C80040031CBF0E9952180499002940F38E80A9
:1049D8008A1A04929DF830205007C2F3800700F12C
:1049E8008580510640F1F6820298002800F08984FB
:1049F80059460293A8470028FFF605AE049A029B81
:104A0800002A0AF1010A02F1FF3140F383844FF0D2
:104A18003008029707940F460C46049302E0002CD6
:104A28005BD0144659464046A847002804F1FF3297
:104A3800F5DAE8E5002389074CBFDDF838804FF048
:104A4800FF38042F03940D930E937FF401AF9DF864
:104A580031309B0707D49DF93130002BACBF4FF0A4
:104A680006084FF00D0809F003030293039B073370
:104A780023F00703D3E9000108330393029BCDE930
:104A88000A01002B3FF4F8AE059FBA42BFF452AFBB
:104A98000024594616F8010CA847002804F101041F
:104AA800FFF6B1ADBE4200F0FA840136F1E7ACF191
:104AB8000303042B00F28B86DFE813F06C02050079
:104AC8000500E800E800039B073323F00703F3E839
:104AD8000201CDE90A010393CAE60AF1010202EBD9
:104AE800070A4FF0FF32079C049B0492029840B1DA
:104AF80059460293A8470028FFF685AD029B0AF1A4
:104B0800010A002B57D09DF931303078002BC0F2C4
:104B18002E82DFF89C8118F800305A0758BF3246B9
:104B280040F1B583771C06E03878013718F8003073
:104B38005B0740F1A8835946A84700283A46F3DAAC
:104B480061E59DF83130781C43F001038DF8313070
:104B58007B78D6E5ACF10303042B00F24B8601A168
:104B680051F823F0AD4F0008CF4A0008CF4A00089B
:104B7800474F0008474F00086FF386118DF8301033
:104B880094E500210B910299039300297FF47CAFEF
:104B98000A9B0DF145098DF84430012311AE00221E
:104BA8001446029217F0080106913FF407AF00215E
:104BB8000133069102E79DF83230DA0600F10182EE
:104BC8001B0700F1FE81069B002B40F0C681002CDC
:104BD800C8BF544403DC2FE3A24500F02E83594696
:104BE8003020A84700280AF1010AF5DA0BE59DF8FC
:104BF8003130023043F004038DF831300378B4E5E6
:104C080007469DF830E0CEF3400E791C782B8DF8DE
:104C1800333005911AD86D2B00F2A282692B15D872
:104C2800572B40F26B820127A3F15801C9B207FA4A
:104C380001F111F4624F40F0688240F60100014230
:104C480040F0A28511F4043F40F0B7829DF831107E
:104C58000027C1F3C30C60469DF8303043F00103D0
:104C68008DF830309DF8303001F004086EF34103C0
:104C78008DF83030CB077FF5C7AD54F8043B002BD7
:104C88000493C0F28E829DF83090C8E5039C0128F9
:104C980054F8041B0B464FEAE171CDE90A3103943D
:104CA8007FF4E6AD59B243F3C0130A910B93DFE5E5
:104CB8007D310108DDE90A12002AC0F2728319F079
:104CC800080F40F0E983C9F300135B010293C2F3B4
:104CD8000A5040F2FF730690C2F31302002840F016
:104CE8001C83BEF1460F00F08D84D00240EA51507B
:104CF80050EAC1234FEAC12C00F0A583120352EAFF
:104D080011524FEA013300F135850699DB185241FB
:104D1800002A01F1FF31F9DA0691069942F00042C2
:104D2800A1F2FE318C1C80F21D85002006905B08E4
:104D380043EAC2735208B2F1333F084601F1010158
:104D4800F5D2069C9100013C06949C0041EA9371BF
:104D5800E31842EB0102811C881CE8DB00292ADDEC
:104D68004FF033363746CDF81CA0DDF818A00233D3
:104D7800A3FB060442F100023B18A2FB063246EBF5
:104D8800040CC01844EB020410EB0C0044F10004BE
:104D98001B1901F1FF310AF1010A42F10002DB1887
:104DA8005241002A01F1FF31F9DA0029DFDCCDF8A0
:104DB80018A0DDF81CA0C1F104041C3123FA04FC7E
:104DC80002FA01F1A4F120034CEA010C22FA03F3E0
:104DD800BEF1670F4CEA030C22FA04F000F01183CD
:104DE800BEF1470F00F00D83BEF1660F00F0058499
:104DF800002208F101030792102B1E46A8BF1026B7
:104E0800013E002B00F0B2844FF000624FF03334C3
:104E1800002327461146CDE908A85B0843EAC17379
:104E2800A3FB04284908BB18A1FB043144EB080A7A
:104E3800D21848EB010812EB0A0248F1000813EBFC
:104E4800080306F1FF3641F10001721CE5D1DDE9E6
:104E580008A80A4613EB0C0340EB0202B2F1805F8C
:104E680080F07083BEF1660F09F0200700F01E8302
:104E780091009C0041EA9371E31842EB0101C1F3F0
:104E8800C362DB1802F130024941302A8DF8442010
:104E980002D0069A013A0692002F40F04783B8F1F3
:104EA800000F40F3D4832E228DF845200F2421F0E3
:104EB80070420DF1440C0DF1460189460C4401E0A5
:104EC800A14511D09100980041EA9371C31842EBB3
:104ED8000101DB18494121F07042090F3031B8F166
:104EE800010809F8011BEBD1079BCDF8388063B1A5
:104EF80000224B460E9213F8012C9946302A03F1F2
:104F0800FF33F8D02E2A08BF99460EF0DF03452B51
:104F180000F011820D9C002C40F38F8201220021A9
:104F28009DF83230664662F386138DF83230224699
:104F38009DF8327089F80010A9EB0C0335E50021C3
:104F4800039C54F8043B0228CDE90A3103D19BB2F3
:104F58000A9300230B9303948AE459469DF833007F
:104F6800A8470028FFF64FAB0AF1010A2FE6702880
:104F780000F0F483741C04E02078702800F0A78106
:104F88001C465946A8470028274604F10103F3DACE
:104F9800FFF739BB039951F8043B0A93DB170391D8
:104FA8000B9365E49DF83310039B6329039903F180
:104FB800040309680A913FF4E4AD039300230B93BB
:104FC80056E459463020A8470028FFF61CAB0AF1E2
:104FD800010AF8E5049A002AC8BF4FF0200802F138
:104FE800FF313FF717AD049180E506219DF8313078
:104FF8009DF830E061F3C6038DF831304378CEF385
:10500800400E02E60721F1E743789DF830E06C2B6B
:10501800CEF3400E00F0B08103209DF8311060F30C
:10502800C6018DF83110F0E50521DFE7BDF8301035
:105038004FF0010E21F4F04121F0020141F48041CA
:1050480041F002014378ADF83010DEE543789DF871
:1050580030E0682BCEF3400E00F0988102209DF8D6
:10506800311060F3C6018DF83110CEE5B8F1000FAC
:105078000A9E80F28D813046FCF7B5F906EB0009EF
:10508800A9EB06038BE559462520A8470028FFF61B
:10509800BAAA039C059A0AF1010AFFF7B0BA0A985E
:1050A800002840F08581DFF800930523A9F1050663
:1050B80075E50A9BBCF1070F3FF63CAC01A252F81C
:1050C8002CF000BF39490008FF500008F9500008CB
:1050D80039490008ED500008ED500008394900082A
:1050E800394900084FEAEA72C3F800A05A6021E47F
:1050F800A3F800A01EE483F800A01BE4412B04D011
:10510800A3F1450102293FF6A1AD03F0DF03A3F1A6
:105118004103B3FA83F304279DF832109DF8310058
:105128005B0963F3C71067F302018DF832108DF83D
:105138003100C1B2000600F1DE8001F07803182BBF
:1051480000F0A18111F0380FC1F3C30C05D09DF810
:10515800303043F001038DF830306046042781E594
:105168006E3BD9B201238B4040F282410B424CD1B5
:1051780013F0240F37D1DF077FF568AD03279DF8BB
:1051880032309DF8311067F3020301F07800C1F363
:10519800C30C402808BF4EF0010E8DF8323060462F
:1051A80060E5049B9DF830E05B424EF0040EF1464A
:1051B80004938DF830E0FFF732BB9DF832309DF84C
:1051C800311067F302038DF8323001F07803402B79
:1051D800C1F3C30C04D19DF830303B438DF8303017
:1051E800604601273EE503279DF832309DF83110CF
:1051F80067F3020311F0780FC1F3C30C18BF4EF028
:10520800010E60468DF832302CE502279DF83110EA
:105218009DF8323001F0780067F3020340288DF8DA
:10522800323005D19DF8303043F001038DF830302D
:10523800C1F3C30C604615E55446002708E05946FB
:1052480016F8010BA847002807F10107FFF6DBA9AC
:10525800B145F4D8002F3846FFF6D5A93C44049B45
:10526800002B40F33782DDF810A0A24402E0544539
:105278003FF460AB59462020A847002804F10104F8
:10528800F5DAFFF7C0B9AAEB060602EB060A9DF8A5
:105298003230990640F19E8110782E2800F07F81E7
:1052A80018F80030590758BF174614D51646541C2D
:1052B80006E02078013418F800305B0740F15C8183
:1052C8005946A84700282746F3DAFFF79CB9AAEB06
:1052D800060604EB060A0E9C002C7EDD544401E011
:1052E800A2457BD059463020A84700280AF1010A78
:1052F800F6DAFFF788B9C1F3C30C60464FF0010E28
:10530800B0E4049A002AC8BF4FF0300802F1FF3118
:105318003FF780AB0491FFF7F4BB0698984200F082
:105328009F81D202BEF1460F08BF4FF0660E42EAD7
:105338005152CB02F1E4069B89F800E0002BB7BF7D
:105348005B422B2306932D2389F80130069B632BA0
:1053580000F3168109F1020291460698134BA3FB4C
:105368000013DB0803EB8301A0EB4101303330313C
:1053780009F8023B5170CDE504219DF83130871CB6
:1053880061F3C6038DF8313083783EE40121F4E7F8
:105398004146304609F0C5FD002E7FF46FAEFFF799
:1053A800C9BA2D23029392E4C9070108CDCCCCCC0D
:1053B8000DF15D0411AB002100940CAAFFF7A4F8CD
:1053C800BDF83230064603F0EF0343F4F04343F0F0
:1053D8001003ADF83230FFF7D0BA5446002608E083
:1053E800594617F8010BA847002806F10106FFF6F1
:1053F8000AA9B945F4D8002E3046FFF604A934446A
:105408002DE7069B033325DAAEF10203B8F1000F4E
:105418005FFA83FE7FF7ECAC19F0200F08F1FF3339
:1054280040F04C811A1E18BF012207924646102EE2
:10543800A8BF10269846013EE6E40E9A002AD4BF7B
:10544800002201226BE5BEF1670F03D0BEF1470FC2
:105458007FF4CAAC069B9845D6DB069B19F0200F53
:10546800A8EB0302434640F07581111E18BF0121C5
:1054780090460791002B4FF0660EBFF6BDAC002397
:105488004FF00062E6E400206FF3C6018DF831109A
:105498008446C9B2FFF7E6BB2B23029317E4002C1E
:1054A8002046FFF6B0A8A244FFF744BA06980028A1
:1054B80040F3B4800DF1440C0446E146A0F1100617
:1054C800CDF820A0CDF8188091004FEA830841EA72
:1054D800937118EB030342EB0101DB1849410A0FF2
:1054E8003032CA4609F8012B21F0704201460138D2
:1054F80000F01781B042E7D10024DDF81880CDF81C
:1055080018A0DDF820A00D96002F40F01581B8F105
:10551800000F40F325812E20069989F800000231FA
:10552800002C00F0D48000200690C6E42E22B8F1AA
:10553800000F8DF845203FF7B9AC0DF146090DF184
:10554800440CD1E45B0843EAC2735708069A013257
:1055580006924FF03332A3FB0236D418A7FB02148D
:1055680042EB06025B1846EB04069B1846F1000660
:105578008B1944F1000275E4AAEB060ABA44AAE6BC
:1055880064220698A44BA3FB00135B0902FB1302D9
:105598003033069289F8023009F10302DCE6029200
:1055A8005946A847029A002802F10106FFF62BA8DF
:1055B800002C0AF1010A50DD1746544401E0A245C7
:1055C8004AD059463020A84700280AF1010AF6DADD
:1055D800FFF719B8002CC8BF174604F1FF3603DCE3
:1055E800D0E0002E6DD01E4659463020A84700282E
:1055F80006F1FF33F5DAFFF706B800230793069B99
:10560800434437E7D00240EA515050EAC1234FEAF9
:10561800C12CF2D04FF0660EFFF770BB30218DF829
:105628004410002F59D02E218DF8451006990029D5
:105638006DD0B8F1000F58DC0DF146090DF1440C9E
:10564800079BCDF83880002B7FF452AC62E40DF153
:1056580045090DF1440C47E43A46507832461FE6B6
:105668006E480EF10103DBB2C35C0A4303F0030387
:105678001CD1012B0BBF492369234E216E210CBF7E
:10568800462266228DF8462000228DF844309DF887
:10569800303014466FF386138DF830308DF845108E
:1056A80003230DF1470911AEFFF77FB9012B15BF91
:1056B8006E234E23612141211A46E3E70022079217
:1056C800B4E65444A4EB060A3A461C46E4E5894687
:1056D8000694B5E7A246FFF72DB9B8F1000F4CDDE7
:1056E8002E218DF845100699A1B106999DF83240F2
:1056F80049424145A8BF414600290D91A8EB010840
:10570800D4BF0021012161F345148DF83240B8F16E
:10571800000F91DD10240DF146010DF1440CFFF747
:10572800CCBB0646C4F10F00DDF818804418CDF84C
:1057380018A0DDF820A0E6E62E200699B8F1000FA3
:1057480001F1020189F800003FF7EAAE002389461B
:10575800069375E79046002207928BE63746BAE52E
:1057680006976DE700200690FFF7F8BA4FF0006241
:10577800FFF770BB2A49FFF7D8BA0DF145090DF1BB
:10578800440C5DE7344687E502209DF831C09DF85A
:1057980032100CF0780760F30201402F8DF83210B8
:1057A800614605D19DF8300040F001008DF83000C9
:1057B800CCF3C30C632B604606D1002F18BF4EF004
:1057C800010E0227FFF74EBA0227FFF74BBA039CD8
:1057D800012854F8041B4FEAE1730B930A910B4616
:1057E80014D0022801BF0BB241F3C0310A930B91C8
:1057F800FFF7B1BB039C012854F8043B09D1DBB285
:105808000A93002303940B93FFF732B80394FFF72E
:1058180049BA0021FFF797BB1F85EB517C3101087E
:1058280002FCFFFF404080F311884FF0040002DFC4
:10583800704700BF0FB400B583B004A951F8040B3A
:105848000191FEF745FD03B05DF804EB04B0704725
:10585800704700BF82B04FF01002EFF3118382F35C
:105868001288BFF36F8F83F31188BFF36F8F002007
:105878000A4A0B490B4B11605A6A0B4942F0805295
:105888005A625B6A03F080530193019B0B6823F40F
:10589800C05343F400630B6002B070474C01002012
:1058A80068FF1F00003802400070004008B507F08C
:1058B80073FA0B4A431843F10003A2FB03CE2EF000
:1058C800030C0CEB9E0CA3EB0C03C01AA0FB020309
:1058D80061F1000102FB0133400840EAC37008BDD2
:1058E800CDCCCCCC002070470FB400B583B004A950
:1058F80051F8040B0191FEF7EBFC03B05DF804EBE3
:1059080004B07047014910220A60704710ED00E0AA
:1059180072B6404080F31188BFF36F8FBFF34F8F8B
:1059280030BF62B6BFF36F8F704700BF10B5044633
:1059380082B0D4E901320092226845210B48FFF772
:10594800D3FFD4E903236069452100900848FFF795
:10595800CBFFE26945210748FFF7C6FF4521A26949
:10596800054802B0BDE81040FFF7BEBFCC070108EC
:1059780000080108340801084808010838B5054638
:105988000C4611B10846FFF7D1FF21462846BDE86D
:10599800384004F037BA00BF38B504460568FFF749
:1059A800C5FF21462846BDE8384004F02BBA00BFA1
:1059B80040B2002807DB012300F01F01024A40091A
:1059C8008B4042F82030704700E100E038B54B1CAE
:1059D8000F2B044611D840B21B010028DBB206DBAE
:1059E80000F1604000F5614080F8003338BD0B4A93
:1059F80000F00F000244137638BD0D465C23084AB8
:105A080008490948FFF716FF294608480F23224688
:105A1800FFF710FF5C210248FFF704FFFCEC00E0F1
:105A28007C080108B4080108E8FB0008D008010850
:105A380000210120FFF7A2BF08B500F005F8BDE876
:105A4800084000F0BFB800BF30BFFFF7FDBF00BF80
:105A580008B5094B094A23F0604323F07F0393609C
:105A6800BFF34F8FBFF36F8F04F0A4FA06F0D8FE90
:105A780000F03AFB04F0F0FA0000000800ED00E046
:105A880010B40C4A0C4993680C680C49C3F8904050
:105A9800C3F88C004B684FF0000C43F080534B6008
:105AA8008CF31188BFF36F8F936810BCD3F8900004
:105AB800704700BF900D00201827010800ED00E096
:105AC80010498A684FF030001044EFF3098C80E8E1
